:0C0000000C9462000C9400000C940000B2
:10000C000C9400000C9400000C9400000C94000064
:10001C000C9400000C9400000C9400000C94000054
:10002C000C9400000C9400000C9400000C94000044
:10003C000C9400000C9400000C9400000C949100A3
:10004C000C9400000C9400000C9400000C94000024
:10005C000C9400000C9400000C9400000C94000014
:10006C000C9400000C9400000C9400000C94000004
:10007C000C9400000C9400000C9400000C940000F4
:10008C001027E80364000A000100001000011000B2
:10009C00010001000000501001006E6E6E6E6E6E5D
:1000AC006E6E80C0080004009E0008000005A600CB
:1000BC0002000805AE000000F894EE27ECBBF1E05E
:1000CC00F5BFE5BFE0936C008DE0A2E0BB27ED939C
:1000DC008A95E9F780E090E1A0E0B1E0ED9301971B
:1000EC00E9F7E0EBF0E085919591009761F0A5912F
:1000FC00B59105901590BF01F00105900D920197F7
:10010C00E1F7FB01F0CFEFEFEDBFE0E1EEBFC0E0B8
:10011C00D5E00C9429020A921A92FA926A937A9375
:10012C008A939A93AA93BA93EA93FA93EFB7EA93C2
:10013C00E0E0EA93A0E00E94CC02D201A050BB4FB9
:10014C00ECB1EC93F20131962F01A0E0B5E0A40DD7
:10015C00B51DAC913197E050FB4FE081EA1719F4D3
:10016C00F20131972F01BB2009F060C0C09AA09119
:10017C000105AF3421F4A0910205AB3409F047C05E
:10018C00F30131963F01AFE40E943103E615F70508
:10019C00D1F40E943603AEE40E942A03A1E40E942B
:1001AC002A03ADE40E942A03A5E40E942A03ADE3CE
:1001BC000E942A03A8E40E942A03A7E40E942A03AF
:1001CC00A8E40E943F03E2E0F0E0E615F705E1F455
:1001DC000E943603A0E50E942A03A3E50E942A038D
:1001EC00A7E50E942A03A4E40E942A03ADE30E941F
:1001FC002A03A1E30E942A03A2E30E942A03A3E399
:10020C000E943F03E1E0BE2EE1E0F0E02F01A0915F
:10021C000105A53421F0A0910105A63439F4BB24C5
:10022C0066247724A2E50E9431032F01E1E0EB154F
:10023C0009F0FBC0C098A0910105AA3219F4E1E0C5
:10024C00F0E02F01E0910105F0E0E133A0E0FA07C6
:10025C0059F4A1E30E9431030E944703E92DE80DF4
:10026C00EABDE0E0E1BF72C0E233A0E0FA0749F476
:10027C00A2E30E9431030E944F038ABCE0E0E1BF7D
:10028C0065C0E333A0E0FA0779F4A3E30E943103DD
:10029C002F01C39AC298E92DE80DE0937800E0E0B5
:1002AC00E8BDEABDE1BF52C0E433A0E0FA0749F46F
:1002BC00A4E30E9431030E944F03E0E0EABD81BE3B
:1002CC0045C0E533A0E0FA0729F4A5E30E94310309
:1002DC002F013CC0E633A0E0FA0749F4A6E30E94E4
:1002EC0031030E9457038ABCE0E0E1BF2FC0E73323
:1002FC00A0E0FA0759F4A7E30E9431030E944703D8
:10030C00E0E0EABDE92DE80DE1BF20C0E833A0E054
:10031C00FA0749F4A8E30E9431030E945703E0E076
:10032C00EABD81BE13C0E933A0E0FA0779F4A9E372
:10033C000E9431032F01C39AC298E0E0E093780049
:10034C00E92DE80DE8BDE0E0EABDE1BFE091030571
:10035C00F0E0EB32A0E0FA0789F4A4E40E94E50295
:10036C00ABE20E9431032F01EEE6E0930305939478
:10037C00EFEFE91511F4EEEF9E2E12C0ED32A0E076
:10038C00FA0771F4A3E61BD1ADE20E9431032F01F1
:10039C00EEE6E09303059A94992011F4E1E09E2E89
:1003AC00E0910405F0E0EB32A0E0FA0771F4A6E767
:1003BC0006D1ABE20E9431030E945F038394EFEFFE
:1003CC00E81511F4EEEF8E2E10C0ED32A0E0FA0716
:1003DC0061F4A6E7F4D0ADE20E9431030E945F0302
:1003EC008A94882011F4E1E08E2EA0910105AA32A6
:1003FC0081F4A0910405AB3261F4A0910405AD32F7
:10040C0041F4A0910305AB3221F4A0910305AD3268
:10041C0021F0A4E6B0E00E947403E0E0E0937800E1
:10042C00EABDE8BDE1BFC398C298E991EFBFF9916D
:10043C00E991B991A9919991899179916991F990E1
:10044C00199009901895BB24E0E0EABBEBBBE0EFF8
:10045C00E7BBE0E0E8BBE4BBE5BBE1BBE2BBE2B978
:10046C00E3B9E0936100E0936200E0936400E093F1
:10047C006500E0BFEAE6E3BFE0E0E2BFE1BFE9EA26
:10048C00EFBDEAE0EEBDE0E0EDBDECBDE7BDE6BDE5
:10049C00EBBDEABDE9BDE8BDE0937900E0937800DF
:1004AC00E5BDE4BDE3BDE0938B00E0938A00E093EF
:1004BC008900E0938800E0938100E0938000E09352
:1004CC008700E0938600E0938500E0938400E0933E
:1004DC008300E0938200E7BFE0937D00E0936A0025
:1004EC00EABFE9BFEBB9E8E9EAB9E6E0E0939500C9
:1004FC00E0E0E0939000E3E3E9B9E0E0E0939A00F8
:10050C00E0E8E8B9E0E0E0BDE6B9EDB9E0937400ED
:10051C00A4E16CD0A4E6B0E00E947403BB2099F473
:10052C00E1E0EA1551F4A4EFB1E00E947403789471
:10053C00A0E9B1E00E947403AA94A1E40E942A03EA
:10054C00A4E50E943F03E6CFFFCFAA93EBB3EF7075
:10055C00AE2FE881E07FEA2BEBBB8DE08A95F1F7BB
:10056C00DA9A8DE08A95F1F7DA988DE08A95F1F7B1
:10057C000C942F03AA93A881E8DFE881E295E88325
:10058C00A881E3DF85E88A95F1F763C0AA93E88137
:10059C00F0E0E85FFA4FE081A981AE0FEBDFD98084
:1005AC00C88022960895A2E00E946603ACE0E2DFC8
:1005BC00A1E00E946603E0E0CE2EDE2E0895AA9301
:1005CC00A881AA3021F0E0910C05DE1648F0E0E09D
:1005DC00EA93C394AC2DDADFA881AA3009F439C0B0
:1005EC00D394D89AA881C6DFD89833C0AA93EAB31B
:1005FC00E06FEABBD29AD09AD19ADA98D898D99867
:10060C00E881E0930C05E058E0930A05E881E0549A
:10061C00E0930B05A4E1B0E00E9474030E946C030C
:10062C000E946C030E946C03A0E28FDF88EC90E0C8
:10063C000197F1F7A8E29EDFA4E09CDFA5E89ADF22
:10064C00A6E098DFB0DF05C0AA935D9BFECFE881E2
:10065C00ECB9219608950E94E502E1E0F0E00895DE
:10066C00A1E40E942A03A4E50E942A03ABE20C94A5
:10067C002A030E942A03ADE00E942A03AAE00C94EC
:10068C002A032F01C398C29AE0E0E0937800E8BDFA
:10069C0008952F01C39AC29A80927800E0E0E8BDD9
:1006AC0008952F01C39AC29AE0E0E093780088BCC9
:1006BC0008952F01EEE6E0930405E09303050895F9
:1006CC000E94C002A3E0B0E00C947403A0E30E946B
:1006DC00AB0288EC90E00197F1F70895109639F091
:1006EC0080ED97E00197F1F7A8951197C9F7089558
:00000001FF
