:100000000C9437000C945F000C945F000C945F001C
:100010000C945F000C945F000C945F000C945F00E4
:100020000C945F000C945F000C945F000C945F00D4
:100030000C945F000C945F000C945F000C945F00C4
:100040000C9473060C945F000C9417040C945704E2
:100050000C945F000C945F000C945F000C945F00A4
:100060000C945F000C945F009E028704B60211247A
:100070001FBECFEFD8E0DEBFCDBF13E0A0E0B1E000
:10008000E4E0F3E102C005900D92A03EB107D9F77C
:1000900025E0A0EEB3E001C01D92A236B207E1F761
:1000A00010E0CCE6D0E004C02297FE010E943007A9
:1000B000C836D107C9F70E9464060C9475090C94E0
:1000C000000080EE93E00E94400586EE93E00E94DF
:1000D00040058CEE93E00E94400582EF93E00C9483
:1000E00040054091060150910701662757FD609534
:1000F000762F26E088EF93E00E94B50368E071E078
:1001000088EF93E00E942E056FE371E088EF93E0A3
:100110000E942E0566E771E088EF93E00E942E05AD
:100120006DEA71E088EF93E00E942E0568E071E0CF
:1001300088EF93E00E942E0564EE71E088EF93E073
:100140000E942E0562E172E088EF93E00E942E0586
:1001500061E272E088EF93E00E942E0564E372E0B2
:1001600088EF93E00E942E0561E272E088EF93E051
:100170000E942E0569E472E088EF93E00E942E054C
:1001800061E672E088EF93E00E942E0562E872E07B
:1001900088EF93E00E942E0561E272E088EF93E021
:1001A0000E942E0566E972E088EF93E00E942E051A
:1001B0006BEA72E088EF93E00E942E0562ED72E038
:1001C00088EF93E00E942E0567EE72E088EF93E0DF
:1001D0000E942E0567E073E088EF93E00E942E05F1
:1001E00061E272E088EF93E00E942E0563E273E023
:1001F00088EF93E00E942E0563E273E088EF93E0BE
:100200000E942E0563E273E088EF93E00E942E05C2
:1002100063E273E088EF93E00E942E0563E273E0EF
:1002200088EF93E00C942E05EF92FF920F931F93AB
:10023000CF93DF9300D000D000D0CDB7DEB767E218
:1002400073E080EE93E00E943206882379F06FE736
:1002500072E088EF93E00E942E0562ED73E080EE7D
:1002600093E00E94DB0500E010E002C001E010E036
:100270006AE273E080EE93E00E943206882371F018
:100280006FE772E088EF93E00E942E0562ED73E065
:1002900080EE93E00E94DB0500E010E063E373E092
:1002A00080EE93E00E9432068823A1F06FE373E0B2
:1002B00088EF93E00E942E056FE772E088EF93E0ED
:1002C0000E942E0562ED73E080EE93E00E94DB0554
:1002D00000E010E06EE473E080EE93E00E943206EE
:1002E0008823D1F066E573E08CEE93E00E94DB0595
:1002F00061E673E082EF93E00E94DB056FE772E056
:1003000088EF93E00E942E0562ED73E080EE93E0AB
:100310000E94DB0500E010E066E673E080EE93E00B
:100320000E9432068823A1F06FE673E088EF93E025
:100330000E942E056FE772E088EF93E00E942E0581
:1003400062ED73E080EE93E00E94DB0500E010E0D8
:1003500064E873E080EE93E00E9432068823D1F0D7
:100360006DE873E088EF93E00E9416056CEE73E091
:1003700088EF93E00E941C056FE772E088EF93E03E
:100380000E942E0562ED73E080EE93E00E94DB0593
:1003900000E010E064E973E080EE93E00E94320632
:1003A0008823D1F06EE973E088EF93E00E94160590
:1003B00062EF73E088EF93E00E941C056FE772E044
:1003C00088EF93E00E942E0562ED73E080EE93E0EB
:1003D0000E94DB0500E010E08091E4039091E503CA
:1003E000089708F490C062ED73E0CE0101960E9478
:1003F000AE05E12CF12CB70180EE93E00E9451068E
:10040000FC016081CE0101960E941F06FFEFEF1AEA
:10041000FF0A88E0E816F10471F768EA73E0CE019C
:1004200001960E943206882389F162ED73E086EE20
:1004300093E00E94DB0508E010E08091E4039091D6
:10044000E5030817190770F4B80180EE93E00E94E5
:100450005106FC01608186EE93E00E941F060F5F4B
:100460001F4FEBCF66EE73E08CEE93E00E94C40565
:1004700062ED73E080EE93E00E94DB056FE772E0CF
:1004800088EF93E00E942E0500E010E061EB73E03E
:10049000CE0101960E943206882389F162ED73E055
:1004A00086EE93E00E94DB0508E010E08091E40313
:1004B0009091E5030817190770F4B80180EE93E0F6
:1004C0000E945106FC01608186EE93E00E941F06A7
:1004D0000F5F1F4FEBCF66EE73E082EF93E00E9459
:1004E000C40562ED73E080EE93E00E94DB056FE7E8
:1004F00072E088EF93E00E942E0500E010E0CE014C
:1005000001960E944005012B61F06AEB73E088EFD1
:1005100093E00E942E0562ED73E080EE93E00E946E
:10052000DB0526960FB6F894DEBF0FBECDBFDF9178
:10053000CF911F910F91FF90EF90089561E673E0C6
:1005400082EF93E00E94AE0566E573E08CEE93E0E7
:100550000E94AE0562ED73E086EE93E00E94AE0568
:1005600062ED73E080EE93E00C94AE050C946100B4
:1005700088EF93E00E94CC02892B69F088EF93E02A
:100580000E94E7028D3011F40C941401682F80EE64
:1005900093E00C941F060895FC01818D228D90E05C
:1005A00081509F4F821B91096FEF70E00E94F80607
:1005B0000895FC01918D828D981731F0828DE80F9E
:1005C000F11D858D90E008958FEF9FEF0895FC0158
:1005D000918D828D981781F0828DDF01A80FB11D5A
:1005E0005D968C91228D2F5F91E02F3F08F490E073
:1005F000920F928F90E008958FEF9FEF08958DE70F
:1006000094E0892B49F080E090E0892B29F00E944A
:100610007D0481110C9400000895FC01848DDF019C
:10062000A80FB11DA45EBE4F2C91848D90E0019661
:100630008F739927848FA689B7892C93A089B18954
:100640008C9180648C93938D848D981306C002885E
:10065000F389E02D80818F7D80830895CF93DF9390
:10066000EC01888D8823C9F0EA89FB89808185FDAA
:1006700005C0A889B9898C9186FD0FC00FB607FC0B
:10068000F5CF808185FFF2CFA889B9898C9185FF4C
:10069000EDCFCE010E940D03E7CFDF91CF910895FA
:1006A000CF92DF92FF920F931F93CF93DF931F920E
:1006B000CDB7DEB76C0181E0D60158968C93589780
:1006C0005B969C915B975C968C915C97981307C0A6
:1006D0005096ED91FC915197808185FD2EC0F601D9
:1006E000038D10E00F5F1F4F0F731127F02EF601DF
:1006F000848DF81211C00FB607FCF9CFD6015096C1
:10070000ED91FC915197808185FFF1CFC6016983FE
:100710000E940D036981EBCF838DE80FF11DE45E2C
:10072000FE4F6083D6015B960C935B975296ED91DA
:10073000FC915397808180620CC0D6015696ED9152
:10074000FC91579760835096ED91FC915197808171
:100750008064808381E090E00F90DF91CF911F91C2
:100760000F91FF90DF90CF900895BF92CF92DF92CC
:10077000EF92FF92CF93DF93EC016A017B01B22EDF
:10078000E889F98982E08083411581EE5807610587
:100790007105A1F060E079E08DE390E0A70196019A
:1007A0000E940C072150310941095109569547957E
:1007B00037952795211580E1380798F0E889F98960
:1007C000108260E874E88EE190E0A70196010E9433
:1007D0000C07215031094109510956954795379524
:1007E0002795EC85FD853083EE85FF852083188E67
:1007F000EC89FD89B082EA89FB89808180618083F0
:10080000EA89FB89808188608083EA89FB8980810D
:1008100080688083EA89FB8980818F7D8083DF9176
:10082000CF91FF90EF90DF90CF90BF9008951F92EF
:100830000F920FB60F9211242F935F936F937F93B4
:100840008F939F93AF93BF93EF93FF93E09108042F
:10085000F09109048081E0910E04F0910F0482FD73
:1008600016C020818091110490E001966FEF70E036
:100870000E94F80690911204981751F0E09111042B
:10088000F0E0E850FC4F258F8093110401C0808177
:10089000FF91EF91BF91AF919F918F917F916F9158
:1008A0005F912F910F900FBE0F901F9018951F9280
:1008B0000F920FB60F9211242F933F934F935F9394
:1008C0006F937F938F939F93AF93BF93EF93FF9318
:1008D00088EF93E00E940D03FF91EF91BF91AF91DC
:1008E0009F918F917F916F915F914F913F912F9148
:1008F0000F900FBE0F901F90189588EF93E00E9405
:10090000CC0221E0892B09F420E0822F0895109277
:10091000FB031092FA0388EE93E0A0E0B0E080932E
:10092000FC039093FD03A093FE03B093FF0384ECBC
:1009300093E09093F9038093F80385EC90E0909313
:1009400005048093040484EC90E090930704809362
:10095000060480EC90E0909309048093080481ECF5
:1009600090E090930B0480930A0482EC90E09093C3
:100970000D0480930C0486EC90E090930F04809318
:100980000E0410921104109212041092130410928B
:1009900014040895CF92DF92EF92FF920F931F936A
:1009A000CF93DF937C016A01EB0100E010E00C15AE
:1009B0001D0571F06991D701ED91FC910190F081D5
:1009C000E02DC7010995892B19F00F5F1F4FEFCF5D
:1009D000C801DF91CF911F910F91FF90EF90DF90B1
:1009E000CF9008956115710581F0DB010D90002015
:1009F000E9F7AD0141505109461B570BDC01ED9160
:100A0000FC910280F381E02D099480E090E008954C
:100A1000DC01ED91FC91DB0114964D915C911597F1
:100A20006D917C910280F381E02D09940C94F20485
:100A300060ED73E00C94F2040F931F93CF93DF9358
:100A4000EC010E9408058C01CE010E941805800F60
:100A5000911FDF91CF911F910F9108950F931F93D5
:100A6000CF93DF93EC010E94F2048C01CE010E942F
:100A70001805800F911FDF91CF911F910F9108955D
:100A8000FC01808191810C94CC07CF93DF93EC0122
:100A900088819981009711F00E94CC0719821882F1
:100AA0001D821C821B821A82DF91CF9108950F93C1
:100AB0001F93CF93DF93EC018B016F5F7F4F888192
:100AC00099810E945B08009731F0998388831B838A
:100AD0000A8381E001C080E0DF91CF911F910F91E7
:100AE0000895CF93DF93EC0188819981892B29F0B8
:100AF0008A819B818617970760F4CE010E94570573
:100B0000882341F08C819D81892B19F4E881F9813A
:100B1000108281E0DF91CF910895EF92FF920F93C1
:100B20001F93CF93DF93EC017B018A01BA010E94EE
:100B30007105811104C0CE010E94450507C01D83C7
:100B40000C83B701888199810E943709CE01DF911A
:100B5000CF911F910F91FF90EF900895FC011182AA
:100B6000108213821282158214826115710559F068
:100B7000FB0101900020E9F7AF0141505109461BEC
:100B8000570B0C948D050895CF93DF93EC01FB0177
:100B90008617970761F0608171816115710529F0F1
:100BA000448155810E948D0502C00E944505CE01F9
:100BB000DF91CF910895CF93DF93EC01611571051B
:100BC00061F0FB0101900020E9F7AF0141505109AC
:100BD000461B570B0E948D0502C00E944505CE01A1
:100BE000DF91CF910895EF92FF920F931F93CF93D0
:100BF000DF93EC017B010C811D816115710511F4FE
:100C000080E016C04115510591F0040F151FB80181
:100C10000E9471058823A1F3288139818C819D81EF
:100C2000B701820F931F0E9437091D830C8381E057
:100C3000DF91CF911F910F91FF90EF900895CF9387
:100C4000DF9300D0CDB7DEB769831A8241E050E070
:100C5000BE016F5F7F4F0E94F3050F900F90DF91F1
:100C6000CF910895FC0124813581232B31F421E0BB
:100C700061157105A1F0FB0108C0FC018081918123
:100C80006115710531F421E0FC018081882339F080
:100C900005C00E942E0921E0892B09F020E0822F57
:100CA0000895FC01848195816817790720F480817B
:100CB0009181009729F41092540584E595E00895F8
:100CC000860F971F089508950E94BD060E9463062F
:100CD0000E947100CFEFD2E00E94B8022097E1F3AA
:100CE0000E94FF02F9CF1F920F920FB60F921124AC
:100CF0002F933F938F939F93AF93BF93809156050C
:100D000090915705A0915805B0915905309155051E
:100D100023E0230F2D3720F40196A11DB11D05C03E
:100D200026E8230F0296A11DB11D2093550580933F
:100D3000560590935705A0935805B0935905809197
:100D40005A0590915B05A0915C05B0915D050196F7
:100D5000A11DB11D80935A0590935B05A0935C057E
:100D6000B0935D05BF91AF919F918F913F912F916E
:100D70000F900FBE0F901F901895789484B58260E5
:100D800084BD84B5816084BD85B5826085BD85B52F
:100D9000816085BDEEE6F0E0808181608083E1E8DE
:100DA000F0E0108280818260808380818160808316
:100DB000E0E8F0E0808181608083E1EBF0E0808119
:100DC00084608083E0EBF0E0808181608083EAE7EB
:100DD000F0E0808184608083808182608083808174
:100DE000816080838081806880831092C100089533
:100DF000AA1BBB1B51E107C0AA1FBB1FA617B70741
:100E000010F0A61BB70B881F991F5A95A9F780955C
:100E10009095BC01CD010895A1E21A2EAA1BBB1B1F
:100E2000FD010DC0AA1FBB1FEE1FFF1FA217B307B6
:100E3000E407F50720F0A21BB30BE40BF50B661FCC
:100E4000771F881F991F1A9469F760957095809590
:100E500090959B01AC01BD01CF010895EE0FFF1FDE
:100E60000590F491E02D0994CF93DF9382309105A2
:100E700010F482E090E0E0916005F091610520E0DF
:100E800030E0A0E0B0E0309739F14081518148175F
:100E90005907B8F04817590771F482819381109768
:100EA00029F013969C938E9312972CC09093610512
:100EB0008093600527C02115310531F04217530793
:100EC00018F0A901DB0101C0EF019A01BD01DF01AA
:100ED0000280F381E02DD7CF21153105F9F0281BD1
:100EE000390B2430310580F48A819B8161157105AD
:100EF00021F0FB019383828304C09093610580936A
:100F00006005FE01329644C0FE01E20FF31F81939B
:100F1000919322503109398328833AC020915E058C
:100F200030915F05232B41F42091020130910301A0
:100F300030935F0520935E052091000130910101FF
:100F40002115310541F42DB73EB740910401509170
:100F50000501241B350BE0915E05F0915F05E2175A
:100F6000F307A0F42E1B3F0B2817390778F0AC01CC
:100F70004E5F5F4F2417350748F04E0F5F1F5093A9
:100F80005F0540935E058193919302C0E0E0F0E03D
:100F9000CF01DF91CF910895CF93DF93009709F4AC
:100FA00087C0FC01329713821282C0916005D091F4
:100FB0006105209781F420813181280F391F8091AC
:100FC0005E0590915F058217930779F5F0935F05B1
:100FD000E0935E056DC0DE0120E030E0AE17BF0794
:100FE00050F412964D915C9113979D014115510556
:100FF00009F1DA01F3CFB383A28340815181840FD9
:10100000951F8A179B0771F48D919C911197840FFE
:10101000951F02969183808312968D919C911397D0
:10102000938382832115310529F4F0936105E093C0
:1010300060053EC0D9011396FC93EE9312974D9133
:101040005D91A40FB51FEA17FB0779F480819181A8
:10105000840F951F0296D90111969C938E938281DD
:10106000938113969C938E931297E0E0F0E08A812F
:101070009B81009719F0FE01EC01F9CFCE01029699
:1010800028813981820F931F20915E0530915F0581
:101090002817390769F4309729F4109261051092E6
:1010A000600502C013821282D0935F05C0935E0573
:1010B000DF91CF910895A0E0B0E0E1E6F8E00C9474
:1010C0004209EC01CB01209719F40E943407B8C003
:1010D000FE01E60FF71F9E0122503109E217F307C8
:1010E00008F4ACC0D9010D911C9111970617170790
:1010F000B8F00530110508F49FC0A801445051090B
:101100004617570708F498C002501109061B170B21
:10111000019311936D937C93CF010E94CC078CC0F7
:101120005B01A01AB10A4E01800E911EA0916005CC
:10113000B0916105612C712C60E070E0109709F4AA
:1011400049C0A815B905C9F5ED90FC901197670144
:1011500042E0C40ED11CCA14DB0478F147018A189E
:101160009B08640142E0C40ED11C1296BC901297F9
:101170001396AC91B5E0CB16D10440F0B282A383B4
:1011800091828082D9018D939C9309C00E5F1F4F7D
:101190000E0D1F1DF90111830083EB2DFA2F611530
:1011A000710531F0DB011396FC93EE93129744C066
:1011B000F0936105E09360053FC06D917C911197BC
:1011C0006616770608F43B01BD0112960D90BC919E
:1011D000A02DB4CF60915E0570915F05681579050B
:1011E000E9F468167906D0F44091000150910101AC
:1011F0004115510541F44DB75EB7609104017091FE
:101200000501461B570BE417F507C0F4F0935F0583
:10121000E0935E05F901918380830EC00E9434073C
:101220007C01009759F0A801BE010E942509CE015A
:101230000E94CC07C70104C0CE0102C080E090E04C
:10124000CDB7DEB7EEE00C945E09FB01DC0102C015
:1012500001900D9241505040D8F70895FB01DC01F8
:101260008D91019080190110D9F3990B0895FB011C
:10127000DC0101900D920020E1F708952F923F923A
:101280004F925F926F927F928F929F92AF92BF9296
:10129000CF92DF92EF92FF920F931F93CF93DF9342
:1012A000CDB7DEB7CA1BDB0B0FB6F894DEBF0FBE9F
:1012B000CDBF09942A88398848885F846E847D84EC
:1012C0008C849B84AA84B984C884DF80EE80FD80EE
:1012D0000C811B81AA81B981CE0FD11D0FB6F89464
:1012E000DEBF0FBECDBFED01089510E0CCE6D0E02B
:1012F00004C0FE010E9430072296CE36D107C9F7FE
:04130000F894FFCF8F
:1013040000006205800080252A2A2A2A2A2A2A2AFD
:101314002A2A2A2A2A2A2A2A2A2A2A2A2A2A2A2A29
:101324002A2A2A2A2A2A2A2A2A2A2A2A2A2A2A2A19
:101334002A2A2A2A2A2A2A2A2A2A2A2A2A2A002A33
:101344002A2A2A2A2A2A2A2A204B2E4E2E546F6F02
:10135400736920556E6976657273697479206F6656
:1013640020546563686E6F6C6F67792A2A2A2A2A6B
:101374002A2A2A2A2A002A48432D303520456D621C
:10138400656464656420426C7565746F6F7468206D
:1013940053657269616C20436F6D6D756E6963612D
:1013A40074696F6E204D6F64756C652A002A426102
:1013B4007564526174653A3936303020202020201B
:1013C4002020202020202020202020202020202019
:1013D4002020202020202020202020202020202009
:1013E40020202A002A2A2A2A2A2A2A2A2A2A2A2A97
:1013F400536F6D6520436F6D6D616E64205375701E
:10140400706F727465642A2A2A2A2A2A2A2A2A2AA6
:101414002A00313A202041542028656E74657229CF
:1014240000202020202020526573706F6E73653A6F
:10143400204F4B00323A202041542B5245534554FF
:101444002028656E7465722900333A202041542B9C
:1014540056455253494F4E3F2028656E7465722994
:1014640000202020202020526573706F6E73653A2F
:101474002B56455253494F4E3A39352E3033204F6F
:101484004B00343A202041542B4F52474C202865BE
:101494006E7465722900353A202041542B4144442E
:1014A400523F2028656E7465722900202020202078
:1014B40020526573706F6E73653A2B414444523AFF
:1014C400313233343A35363A616263646566204FAB
:1014D4004B00363A202041542B4E414D453F2028A5
:1014E400656E7465722900202020202020526573C7
:1014F400706F6E73653A2B4E414D453A3C506172A4
:10150400616D3E204F4B00373A202041542B4E4111
:101514004D453D3C506172616D3E2028656E746599
:1015240072290020202E0041540041542B5245536F
:1015340045540041542B56455253494F4E3F002BBE
:1015440056455253494F4E3A39352E3033004154A3
:101554002B4F52474C004B4E54555F48432D30356A
:1015640000313233340041542B414444523F002B68
:10157400414444523A313233343A35363A61626343
:101584006465660041542B4E414D453F002B4E414E
:101594004D453A0041542B20505357443F002B20D3
:1015A40050535744203A200041542B4E414D453D61
:1015B4000041542B505357443D004552524F520062
:1015C400000000005003CA04CC02E702D9022E0333
:1015D4000D0A006E616E00696E66006F766600002B
:00000001FF
