:100000000C9464000C948C000C948C000C947C0276
:100010000C947C020C947C020C948C000C948C004C
:100020000C948C000C948C000C948C000C948C0020
:100030000C948C000C948C000C948C000C948C0010
:100040000C940F040C948C000C94EB060C942B076E
:100050000C948C000C948C000C948C000C948C00F0
:100060000C948C000C948C0000000008000201002D
:100070000003040700000000000000000102040863
:100080001020408001020408102001020408102002
:10009000040404040404040402020202020203032E
:1000A00003030303000000002300260029000000D2
:1000B0000000250028002B0000000000240027007D
:1000C0002A008E005B07950011241FBECFEFD8E0F9
:1000D000DEBFCDBF12E0A0E0B1E0E6E6F2E102C093
:1000E00005900D92A030B107D9F724E0A0E0B2E06E
:1000F00001C01D92AC32B207E1F710E0C6ECD0E0CF
:1001000004C02297FE010E942209C23CD107C9F710
:100110000E94A7080C9426090C94000020E049E0F6
:1001200068E080E092E00C94510380E092E00C944F
:10013000F80264E670E080E090E00E947C0462E0F7
:100140008AE00E94080562E08BE00E94080562E0F8
:100150008CE00E94080562E08DE00E9408058DE0B9
:100160000E947705892B61F480EC92E19093030162
:100170008093020184E893E0909301018093000151
:100180008CE00E947705892B61F480E09BE49093DA
:1001900003018093020188EC90E090930101809329
:1001A00000018BE00E947705892B61F480E096E9DD
:1001B000909303018093020184E690E09093010103
:1001C000809300018AE00E947705892B61F480E02A
:1001D00091EE909303018093020180E590E090936B
:1001E00001018093000140910201509103016627B3
:1001F00057FD6095762F80E092E00E948103409148
:10020000020150910301662757FD6095762F26E085
:1002100080ED92E00E94890664E071E080ED92E05A
:100220000E94E9076DE271E080ED92E00E94E9072B
:1002300066E571E080ED92E00E94E9076FE771E00A
:1002400080ED92E00E94DC07609102017091030151
:100250004AE050E080ED92E00E949E086AE871E07A
:1002600080ED92E00E94E90764E071E080ED92E0A9
:100270000E94E90764E071E080E092E00E94E907F3
:100280006DE271E080E092E00E94E90765EA71E0CA
:1002900080E092E00E94E9076FE771E080E092E081
:1002A0000E94DC0760910201709103014AE050E076
:1002B00080E092E00E949E086AE871E080E092E0AF
:1002C0000E94E90764E071E080E092E00E94E907A3
:1002D00080E092E00E940A0280ED92E00C94020617
:1002E00080E092E00E942502892B79F080E092E084
:1002F0000E949501E091D002F091D1020190F0812D
:10030000E02D682F80ED92E0099580ED92E00E944B
:10031000A005892B49F080ED92E00E94BB05682F73
:1003200080E092E00C94B80108952091C5023091CC
:10033000C60228173907C9F490911F028091200244
:10034000981799F0E0911F02F0E0EF5DFD4F2081DA
:1003500080911F0290E0019664EA70E00E94CB0851
:1003600080931F02822F90E008958FEF9FEF0895F2
:100370001F93CF93DF93DC015C968D919C915D97E9
:10038000009749F481E090E013969C938E93129726
:1003900080E090E03BC05196ED91FC9152975096D1
:1003A0002C915097322F30951FB75E964C915E97E7
:1003B00041FB772770F941FD6095F89440817723E0
:1003C00011F0422B01C043234083EC012197F1F748
:1003D00048E0508160FF02C0522B01C0532350837C
:1003E000EC012197F1F76695415099F780817723C9
:1003F00011F0832301C0822B80831FBF5C968D91F7
:100400009C915D970197F1F781E090E0DF91CF91AA
:100410001F91089508952091C5023091C6022817B2
:10042000390781F490911F0280912002981751F0B2
:10043000E0911F02F0E0EF5DFD4F8081992787FD7D
:10044000909508958FEF9FEF08952091C502309108
:10045000C6022817390771F48091200220911F02EB
:1004600090E08C559F4F821B910964EA70E00E94D6
:10047000CB08089580E090E00895E091C502F091E6
:10048000C602E817F90769F4A389B4899C918589A4
:10049000809589238C931092C6021092C50281E048
:1004A000089580E00895CF93DF93EC018A8D9B8DB2
:1004B000892BF1F08091C5029091C6028C179D079F
:1004C000B9F0009711F00E943D028E8D8E7F8E8FC5
:1004D0001092200210921F02D093C602C093C50250
:1004E000EB89FC8980819D89892B808381E001C013
:1004F00080E0DF91CF9108951F920F920FB60F9277
:1005000011242F933F934F935F936F937F938F9318
:100510009F93AF93BF93EF93FF93E091C502F09148
:10052000C602309709F453C0868DA685B785958598
:1005300081FF04C08C91892329F449C08C918923BF
:1005400009F045C0A389B4899C9185898095892348
:100550008C93868997890197F1F7208D318DA68537
:10056000B785758558E040E0C9010197F1F7842F00
:1005700090E095958795482F6C91672309F0406826
:10058000515091F7868D81FD40958091200290E039
:10059000019664EA70E00E94CB0890911F029817C0
:1005A00049F0A0912002B0E0AF5DBD4F4C93809325
:1005B000200203C0868D8160868F828D938D019786
:1005C000F1F7A389B4898C919589892B8C93FF913C
:1005D000EF91BF91AF919F918F917F916F915F91BB
:1005E0004F913F912F910F900FBE0F901F90189534
:1005F00022ED31E0FC01318320830C943D021F93F6
:10060000CF93DF93EC01162F6E8D6695617081E0BC
:100610006827812F0E94410561E0812F0E94080513
:10062000812F90E0FC01E458FF4FE491E88BFC013E
:10063000E057FF4FE491F0E0EE0FFF1FE255FF4F50
:10064000859194919A8B898BDF91CF911F91089519
:100650001F93CF93DF93EC01162F60E0812F0E9450
:1006600008058E8D81FD04C061E0812F0E94410547
:100670001C87812F90E0FC01E458FF4FE491ED8747
:10068000FC01E057FF4FE491F0E0EE0FFF1FEC5547
:10069000FF4F859194919F878E87DF91CF911F9116
:1006A0000895FF920F931F93CF93DF93EC01F62EE3
:1006B000522F1B821A8208EE13E020E030E00C83F8
:1006C0001D832E833F8382ED91E0998388831F8A67
:1006D0001E8A198E188E1B8E1A8E1D8E1C8E8E8D64
:1006E0008E7F50FB81F98E8F642FCE010E94FF0216
:1006F0006F2DCE01DF91CF911F910F91FF900C9440
:100700002803CF93DF93EC019A01AB011B8E1A8E65
:10071000198E188E1F8A1E8A60E079E08DE390E0C2
:100720000E940109C9012430310520F0B90163504C
:10073000710902C061E070E07D8F6C8FEC85E6315D
:1007400008F068C0B901769567956431710518F0B5
:100750006351710902C061E070E07F8B6E8B069778
:1007600018F0C901059702C081E090E0998F888F49
:10077000C901880F991F820F931F969587959695AB
:1007800087958D30910510F00C9702C081E090E0C4
:100790009B8F8A8F20916800E83050F091E0EE3016
:1007A00008F490E081E001C0880F9A95EAF701C053
:1007B00084E0822B809368002C85283038F02E301E
:1007C00040F0263148F48CE690E008C08DE690E0D9
:1007D00005C08BE690E002C080E090E09C8B8B8BA4
:1007E000283030F481E001C0880F2A95EAF70DC067
:1007F000822F90E02E3010F4089701C00E9791E000
:1008000001C0990F8A95EAF7892F8D8B8C8D9D8D6C
:100810000197F1F7CE01DF91CF910C9453021F9213
:100820000F920FB60F9211242F933F938F939F93A4
:10083000AF93BF938091C8029091C902A091CA0260
:10084000B091CB023091C70223E0230F2D3720F463
:100850000196A11DB11D05C026E8230F0296A11D1A
:10086000B11D2093C7028093C8029093C902A09340
:10087000CA02B093CB028091CC029091CD02A0919C
:10088000CE02B091CF020196A11DB11D8093CC0282
:100890009093CD02A093CE02B093CF02BF91AF91BF
:1008A0009F918F913F912F910F900FBE0F901F90AE
:1008B00018953FB7F8948091CC029091CD02A09109
:1008C000CE02B091CF0226B5A89B05C02F3F19F0EC
:1008D0000196A11DB11D3FBF6627782F892F9A2F42
:1008E000620F711D811D911D42E0660F771F881FE9
:1008F000991F4A95D1F70895CF92DF92EF92FF9218
:10090000CF93DF936B017C010E945904EB01C1146A
:10091000D104E104F10489F00E94B6080E94590450
:100920006C1B7D0B683E734090F381E0C81AD108C0
:10093000E108F108C851DC4FEACFDF91CF91FF9079
:10094000EF90DF90CF900895789484B5826084BD55
:1009500084B5816084BD85B5826085BD85B58160C3
:1009600085BDEEE6F0E0808181608083E1E8F0E023
:100970001082808182608083808181608083E0E852
:10098000F0E0808181608083E1EBF0E08081846031
:100990008083E0EBF0E0808181608083EAE7F0E033
:1009A0008081846080838081826080838081816097
:1009B00080838081806880831092C1000895833095
:1009C00081F028F4813099F08230A1F008958730C9
:1009D000A9F08830B9F08430D1F4809180008F7D07
:1009E00003C0809180008F7780938000089584B544
:1009F0008F7702C084B58F7D84BD08958091B0004B
:100A00008F7703C08091B0008F7D8093B0000895F0
:100A1000CF93DF9390E0FC01E458FF4F2491FC0159
:100A2000E057FF4F8491882349F190E0880F991F88
:100A3000FC01E854FF4FA591B49182559F4FFC01F2
:100A4000C591D4919FB7611108C0F8948C912095FD
:100A500082238C93888182230AC0623051F4F894F7
:100A60008C91322F309583238C938881822B8883BD
:100A700004C0F8948C91822B8C939FBFDF91CF910F
:100A800008950F931F93CF93DF931F92CDB7DEB7D7
:100A9000282F30E0F901E859FF4F8491F901E4581B
:100AA000FF4F1491F901E057FF4F04910023C9F063
:100AB000882321F069830E94DF046981E02FF0E040
:100AC000EE0FFF1FE255FF4FA591B4919FB7F89429
:100AD0008C91611103C01095812301C0812B8C93EF
:100AE0009FBF0F90DF91CF911F910F910895CF93EA
:100AF000DF93282F30E0F901E859FF4F8491F90185
:100B0000E458FF4FD491F901E057FF4FC491CC2333
:100B100091F081110E94DF04EC2FF0E0EE0FFF1F37
:100B2000EC55FF4FA591B4912C912D2381E090E0DD
:100B300021F480E002C080E090E0DF91CF91089541
:100B4000FC01818D228D90E081509F4F821B910985
:100B50006FEF70E00E94B7080895FC01918D828DBF
:100B6000981731F0828DE80FF11D858D90E0089582
:100B70008FEF9FEF0895FC01918D828D981781F082
:100B8000828DDF01A80FB11D5D968C91228D2F5FA4
:100B900091E02F3F08F490E0920F928F90E008953B
:100BA0008FEF9FEF089581E597E0892B49F080E072
:100BB00090E0892B29F00E94510781110C940000CC
:100BC0000895FC01848DDF01A80FB11DA45EBE4F06
:100BD0002C91848D90E001968F739927848FA6893C
:100BE000B7892C93A089B1898C9180648C93938D63
:100BF000848D981306C00288F389E02D80818F7D53
:100C000080830895CF93DF93EC01888D8823C9F00A
:100C1000EA89FB89808185FD05C0A889B9898C9105
:100C200086FD0FC00FB607FCF5CF808185FFF2CFA0
:100C3000A889B9898C9185FFEDCFCE010E94E1058D
:100C4000E7CFDF91CF910895CF92DF92FF920F937C
:100C50001F93CF93DF931F92CDB7DEB76C0181E076
:100C6000D60158968C9358975B969C915B975C96AF
:100C70008C915C97981307C05096ED91FC91519719
:100C8000808185FD2EC0F601038D10E00F5F1F4FA0
:100C90000F731127F02EF601848DF81211C00FB6D4
:100CA00007FCF9CFD6015096ED91FC9151978081C8
:100CB00085FFF1CFC60169830E94E1056981EBCF11
:100CC000838DE80FF11DE45EFE4F6083D6015B96D5
:100CD0000C935B975296ED91FC91539780818062C3
:100CE0000CC0D6015696ED91FC91579760835096B3
:100CF000ED91FC91519780818064808381E090E048
:100D00000F90DF91CF911F910F91FF90DF90CF90C7
:100D10000895BF92CF92DF92EF92FF92CF93DF932D
:100D2000EC016A017B01B22EE889F98982E08083B7
:100D3000411581EE580761057105A1F060E079E089
:100D40008DE390E0A70196010E94DF082150310950
:100D5000410951095695479537952795211580E109
:100D6000380798F0E889F989108260E874E88EE124
:100D700090E0A70196010E94DF0821503109410946
:100D800051095695479537952795EC85FD85308314
:100D9000EE85FF852083188EEC89FD89B082EA8973
:100DA000FB89808180618083EA89FB8980818860FA
:100DB0008083EA89FB89808180688083EA89FB8956
:100DC00080818F7D8083DF91CF91FF90EF90DF90C6
:100DD000CF90BF9008951F920F920FB60F921124DB
:100DE0002F935F936F937F938F939F93AF93BF9353
:100DF000EF93FF93E091E002F091E1028081E091B6
:100E0000E602F091E70282FD16C020818091E9029E
:100E100090E001966FEF70E00E94B7089091EA02AF
:100E2000981751F0E091E902F0E0E053FD4F258F73
:100E30008093E90201C08081FF91EF91BF91AF9152
:100E40009F918F917F916F915F912F910F900FBE26
:100E50000F901F9018951F920F920FB60F921124AA
:100E60002F933F934F935F936F937F938F939F93B2
:100E7000AF93BF93EF93FF9380ED92E00E94E10563
:100E8000FF91EF91BF91AF919F918F917F916F9162
:100E90005F914F913F912F910F900FBE0F901F9038
:100EA000189580ED92E00E94A00521E0892B09F4BD
:100EB00020E0822F08951092D3021092D20288EE81
:100EC00093E0A0E0B0E08093D4029093D502A09389
:100ED000D602B093D70282EE91E09093D102809334
:100EE000D00285EC90E09093DD028093DC0284ECEC
:100EF00090E09093DF028093DE0280EC90E090938C
:100F0000E1028093E00281EC90E09093E302809311
:100F1000E20282EC90E09093E5028093E40286EC9A
:100F200090E09093E7028093E6021092E90210921B
:100F3000EA021092EB021092EC020895CF92DF9237
:100F4000EF92FF920F931F93CF93DF937C016A017F
:100F5000EB0100E010E00C151D0571F06991D7015F
:100F6000ED91FC910190F081E02DC7010995892B4D
:100F700019F00F5F1F4FEFCFC801DF91CF911F9185
:100F80000F91FF90EF90DF90CF900895611571055C
:100F900081F0DB010D900020E9F7AD0141505109CE
:100FA000461B570BDC01ED91FC910280F381E02D93
:100FB000099480E090E008950C94C607DC01ED915F
:100FC000FC910190F081E02D09946EEE71E00C949B
:100FD000C6070F931F93CF93DF93EC010E94C607C0
:100FE0008C01CE010E94E507800F911FDF91CF9108
:100FF0001F910F9108958F929F92AF92BF92CF92BF
:10100000DF92EF92FF920F931F93CF93DF93CDB7B1
:10101000DEB7A1970FB6F894DEBF0FBECDBF7C013F
:10102000C42EE52FCB01D22E19A221E02D1510F0F0
:101030002AE0D22E8E010F5D1F4F8D2C912CA12CFA
:10104000B12C6C2D7E2FA50194010E94DF088C2D00
:10105000D29E80191124015011098A3014F4805D48
:1010600001C0895CF80180832115310541055105D6
:1010700021F0C22EE32FCA01E4CFB801C7010E94BC
:10108000C607A1960FB6F894DEBF0FBECDBFDF91A5
:10109000CF911F910F91FF90EF90DF90CF90BF9075
:1010A000AF909F908F900895CF92DF92EF92FF9232
:1010B0000F931F93CF93DF93EC016A017B012115FE
:1010C000310579F4E881F9810190F081E02D642FF8
:1010D000DF91CF911F910F91FF90EF90DF90CF9014
:1010E00009942A303105E9F477FF1AC06DE20E94B5
:1010F000DE078C0144275527BA014C195D096E099A
:101100007F092AE0CE010E94FB07800F911FDF912B
:10111000CF911F910F91FF90EF90DF90CF900895A6
:101120002AE0B701A601CE01DF91CF911F910F9167
:10113000FF90EF90DF90CF900C94FB079A01AB01EA
:10114000662757FD6095762F0C94540808950E94E9
:10115000A4040E94A6080E949900C3EDD5E00E9455
:1011600070012097E1F30E94D305F9CF0895AA1BDF
:10117000BB1B51E107C0AA1FBB1FA617B70710F082
:10118000A61BB70B881F991F5A95A9F780959095B4
:10119000BC01CD01089597FB072E16F4009407D0EB
:1011A00077FD09D00E94B70807FC05D03EF4909562
:1011B00081959F4F0895709561957F4F0895A1E2A5
:1011C0001A2EAA1BBB1BFD010DC0AA1FBB1FEE1FC1
:1011D000FF1FA217B307E407F50720F0A21BB30B0C
:1011E000E40BF50B661F771F881F991F1A9469F788
:1011F00060957095809590959B01AC01BD01CF01E4
:101200000895052E97FB1EF400940E94180957FDBF
:1012100007D00E94DF0807FC03D04EF40C94180995
:1012200050954095309521953F4F4F4F5F4F089512
:1012300090958095709561957F4F8F4F9F4F089542
:10124000EE0FFF1F0590F491E02D099410E0C6EC1D
:10125000D0E004C0FE010E9422092296C83CD107BA
:06126000C9F7F894FFCF6E
:10126600F40180252A2A2A2A2A2A2A2A2A2A2A2AE6
:101276002A2A2A2A2A2A2A2A2A2A2A2A2A2A2A2AC8
:101286002A2A2A2A2A2A2A2A2A2A2A2A002A2A20EC
:101296004B2E4E2E546F6F736920556E69766572AC
:1012A60073697479206F6620546563686E6F6C6F1E
:1012B6006779202A2A002A426C7565746F6F7468F4
:1012C600204E756D6265723A322020202020202043
:1012D600202020202020202020202020202A002A14
:1012E60042617564526174653A00202020202020F6
:1012F60020202020202020202020202020202020E8
:101306002020202A002A426C7565746F6F7468204D
:101316004E756D6265723A312020202020202020F3
:101326002020202020202020202020202A0000000D
:101336000000B8019E07250295010B020A02000073
:10134600000024069E07A005BB05AD0502060D0A92
:10135600006E616E00696E66006F7666002E000094
:00000001FF
