:0E0000000C9457000C9400000C9400000C941B
:10000E0000000C9400000C9400000C9400000C9462
:10001E0000000C9400000C9400000C9400000C9452
:10002E0000000C9400000C9400000C9400000C9442
:10003E0000000C9400000C9400000C9486000C94AC
:10004E0000000C9400000C9400000C9400000C9422
:10005E0000000C9400000C9400000C9400000C9412
:10006E0000000C9400000C9400000C9400000C9402
:10007E0000000C9400000C9400000C940000010091
:10008E0050106E6E6E6E6E6E6E6E80C0040004004A
:10009E008C00080000059000020008059800000082
:1000AE00F894EE27ECBBF1E0F5BFE5BFE0936C00F2
:1000BE008DE0A2E0BB27ED938A95E9F780E090E111
:1000CE00A0E0B1E0ED930197E9F7EAE9F0E0859160
:1000DE009591009761F0A591B59105901590BF018E
:1000EE00F00105900D920197E1F7FB01F0CFEFEFD4
:1000FE00EDBFE0E1EEBFC0E0D5E00C94AE010A9298
:10010E001A92FA926A937A938A939A93AA93BA93CB
:10011E00EA93FA93EFB7EA93E0E0EA93A0E00E9445
:10012E003B02D201A050BB4FECB1EC93F2013196E1
:10013E002F01A0E0B5E0A40DB51DAC913197E050B4
:10014E00FB4FE081EA1719F4F20131972F01A091CC
:10015E000105AA3219F4E1E0F0E02F01E09101056A
:10016E00F0E0E133A0E0FA0759F4A1E30E94910216
:10017E000E949602E72DE60DEABDE0E0E1BF6FC0FA
:10018E00E233A0E0FA0749F4A2E30E9491020E9432
:10019E009D026ABCE0E0E1BF62C0E333A0E0FA0773
:1001AE0071F4A3E30E949102C39AC298E72DE60D63
:1001BE00E0937800E0E0E8BDEABDE1BF50C0E43373
:1001CE00A0E0FA0749F4A4E30E9491020E949D0266
:1001DE00E0E0EABD61BE43C0E533A0E0FA0721F4DA
:1001EE00A5E30E9491023BC0E633A0E0FA0749F472
:1001FE00A6E30E9491020E94A4026ABCE0E0E1BF65
:10020E002EC0E733A0E0FA0759F4A7E30E9491024B
:10021E000E949602E0E0EABDE72DE60DE1BF1FC0A9
:10022E00E833A0E0FA0749F4A8E30E9491020E9485
:10023E00A402E0E0EABD61BE12C0E933A0E0FA0715
:10024E0071F4A9E30E949102C39AC298E0E0E09390
:10025E007800E72DE60DE8BDE0E0EABDE1BFE091F4
:10026E000305F0E0EB32A0E0FA0779F4A4E413D131
:10027E00ABE20E949102EEE6E09303057394EFEF7A
:10028E00E71511F4EEEF7E2E11C0ED32A0E0FA0765
:10029E0069F4A3E600D1ADE20E949102EEE6E0938E
:1002AE0003057A94772011F4E1E07E2EE0910405A7
:1002BE00F0E0EB32A0E0FA0769F4A6E7ECD0ABE28F
:1002CE0029D10E94AB026394EFEFE61511F4EEEF25
:1002DE006E2E0FC0ED32A0E0FA0759F4A6E7DBD080
:1002EE00ADE218D10E94AB026A94662011F4E1E0EF
:1002FE006E2EA0910105AA3281F4A0910405AB32B5
:10030E0061F4A0910405AD3241F4A0910305AB3226
:10031E0021F4A0910305AD3221F0A4E6B0E00E94D5
:10032E00BD02E0E0E0937800EABDE8BDE1BFC3980E
:10033E00C298E991EFBFF991E991B991A99199917B
:10034E00899179916991F990199009901895E0E049
:10035E00EABBEBBBEFEFE7BBE0E0E8BBE4BBE5BB22
:10036E00E1BBE2BBE2B9E3B9E0936100E093620066
:10037E00E0936400E0936500E0BFEAE6E3BFE0E0EF
:10038E00E2BFE1BFE9EAEFBDEAE0EEBDE0E0EDBDC0
:10039E00ECBDE7BDE6BDEBBDEABDE9BDE8BDE09352
:1003AE007900E0937800E5BDE4BDE3BDE0938B00FA
:1003BE00E0938A00E0938900E0938800E093810047
:1003CE00E0938000E0938700E0938600E093850041
:1003DE00E0938400E0938300E0938200E7BFE09314
:1003EE007D00E0936A00EABFE9BFEBB9E0E9EAB944
:1003FE00E6E0E0939500E0E0E0939000E3E3E9B9F6
:10040E00E0E0E0939A00E0E8E8B9E0E0E0BDE6B9AC
:10041E00EDB9E0937400A4E152D07894A4E6B0E074
:10042E000E94BD02FBCFFFCFAA93EBB3EF70AE2FAE
:10043E00E881E07FEA2BEBBB8DE08A95F1F7DA9A43
:10044E008DE08A95F1F7DA988DE08A95F1F760C024
:10045E00AA93A881E9DFE881E295E883A881E4DF29
:10046E0085E88A95F1F754C0AA93E881F0E0E85F39
:10047E00FA4FE081A981AE0FEBDF9980888022963A
:10048E000895A2E067D0ACE0E3DFA1E063D0E0E046
:10049E008E2E9E2E0895AA93A881AA3011F09B1439
:1004AE0040F0E0E0EA938394A82DDEDFA881AA3025
:1004BE0079F19394D89AA881CBDFD89829C0AA93C2
:1004CE00EAB3E06FEABBD29AD09AD19ADA98D8986A
:1004DE00D998B880E881E058E0930A05E881E054A5
:1004EE00E0930B05A4E1B0E00E94BD0238D037D0F6
:1004FE0036D0A0E299DF88EC90E00197F1F7A8E200
:10050E00A7DFA4E0A5DFA5E8A3DFA6E0A1DFB9DFA2
:10051E0021960895C0DFE1E0F0E02F010895C39821
:10052E00C29AE0E0E0937800E8BD0895C39AC29ABB
:10053E0060927800E0E0E8BD0895C39AC29AE0E0C8
:10054E00E093780068BC0895EEE6E0930405E0932E
:10055E00030508957DDFA3E0B0E00C94BD02A0E397
:10056E0063DF88EC90E00197F1F70895109639F06B
:10057E0080ED97E00197F1F7A8951197C9F70895C7
:00000001FF
